{
  "_format": "hh-sol-artifact-1",
  "contractName": "GradePredictionMarket",
  "sourceName": "contracts/market.sol",
  "abi": [
    {
      "inputs": [],
      "stateMutability": "nonpayable",
      "type": "constructor"
    },
    {
      "anonymous": false,
      "inputs": [
        {
          "indexed": true,
          "internalType": "uint256",
          "name": "betId",
          "type": "uint256"
        },
        {
          "indexed": true,
          "internalType": "address",
          "name": "bettor",
          "type": "address"
        },
        {
          "indexed": false,
          "internalType": "uint256",
          "name": "amount",
          "type": "uint256"
        },
        {
          "indexed": false,
          "internalType": "uint256",
          "name": "threshold",
          "type": "uint256"
        },
        {
          "indexed": false,
          "internalType": "uint256",
          "name": "potentialPayout",
          "type": "uint256"
        }
      ],
      "name": "BetPlaced",
      "type": "event"
    },
    {
      "anonymous": false,
      "inputs": [
        {
          "indexed": true,
          "internalType": "uint256",
          "name": "betId",
          "type": "uint256"
        },
        {
          "indexed": false,
          "internalType": "uint256",
          "name": "actualGrade",
          "type": "uint256"
        },
        {
          "indexed": false,
          "internalType": "bool",
          "name": "won",
          "type": "bool"
        }
      ],
      "name": "BetResolved",
      "type": "event"
    },
    {
      "anonymous": false,
      "inputs": [
        {
          "indexed": false,
          "internalType": "uint256",
          "name": "amount",
          "type": "uint256"
        }
      ],
      "name": "ContractFunded",
      "type": "event"
    },
    {
      "anonymous": false,
      "inputs": [
        {
          "indexed": true,
          "internalType": "uint256",
          "name": "betId",
          "type": "uint256"
        },
        {
          "indexed": true,
          "internalType": "address",
          "name": "bettor",
          "type": "address"
        },
        {
          "indexed": false,
          "internalType": "uint256",
          "name": "amount",
          "type": "uint256"
        }
      ],
      "name": "PayoutSent",
      "type": "event"
    },
    {
      "inputs": [],
      "name": "PAYOUT_AMOUNT",
      "outputs": [
        {
          "internalType": "uint256",
          "name": "",
          "type": "uint256"
        }
      ],
      "stateMutability": "view",
      "type": "function"
    },
    {
      "inputs": [],
      "name": "admin",
      "outputs": [
        {
          "internalType": "address",
          "name": "",
          "type": "address"
        }
      ],
      "stateMutability": "view",
      "type": "function"
    },
    {
      "inputs": [
        {
          "internalType": "uint256",
          "name": "",
          "type": "uint256"
        }
      ],
      "name": "bets",
      "outputs": [
        {
          "internalType": "address",
          "name": "bettor",
          "type": "address"
        },
        {
          "internalType": "uint256",
          "name": "betAmount",
          "type": "uint256"
        },
        {
          "internalType": "uint256",
          "name": "gradeThreshold",
          "type": "uint256"
        },
        {
          "internalType": "uint256",
          "name": "potentialPayout",
          "type": "uint256"
        },
        {
          "internalType": "bool",
          "name": "isResolved",
          "type": "bool"
        },
        {
          "internalType": "bool",
          "name": "won",
          "type": "bool"
        },
        {
          "internalType": "uint256",
          "name": "timestamp",
          "type": "uint256"
        }
      ],
      "stateMutability": "view",
      "type": "function"
    },
    {
      "inputs": [],
      "name": "contractBalance",
      "outputs": [
        {
          "internalType": "uint256",
          "name": "",
          "type": "uint256"
        }
      ],
      "stateMutability": "view",
      "type": "function"
    },
    {
      "inputs": [],
      "name": "fundContract",
      "outputs": [],
      "stateMutability": "payable",
      "type": "function"
    },
    {
      "inputs": [],
      "name": "getAvailableBalance",
      "outputs": [
        {
          "internalType": "uint256",
          "name": "",
          "type": "uint256"
        }
      ],
      "stateMutability": "view",
      "type": "function"
    },
    {
      "inputs": [
        {
          "internalType": "uint256",
          "name": "betId",
          "type": "uint256"
        }
      ],
      "name": "getBet",
      "outputs": [
        {
          "internalType": "address",
          "name": "bettor",
          "type": "address"
        },
        {
          "internalType": "uint256",
          "name": "betAmount",
          "type": "uint256"
        },
        {
          "internalType": "uint256",
          "name": "gradeThreshold",
          "type": "uint256"
        },
        {
          "internalType": "uint256",
          "name": "potentialPayout",
          "type": "uint256"
        },
        {
          "internalType": "bool",
          "name": "isResolved",
          "type": "bool"
        },
        {
          "internalType": "bool",
          "name": "won",
          "type": "bool"
        },
        {
          "internalType": "uint256",
          "name": "timestamp",
          "type": "uint256"
        }
      ],
      "stateMutability": "view",
      "type": "function"
    },
    {
      "inputs": [
        {
          "internalType": "address",
          "name": "user",
          "type": "address"
        }
      ],
      "name": "getUserActiveBets",
      "outputs": [
        {
          "internalType": "uint256[]",
          "name": "",
          "type": "uint256[]"
        }
      ],
      "stateMutability": "view",
      "type": "function"
    },
    {
      "inputs": [],
      "name": "nextBetId",
      "outputs": [
        {
          "internalType": "uint256",
          "name": "",
          "type": "uint256"
        }
      ],
      "stateMutability": "view",
      "type": "function"
    },
    {
      "inputs": [
        {
          "internalType": "uint256",
          "name": "_gradeThreshold",
          "type": "uint256"
        }
      ],
      "name": "placeBet",
      "outputs": [],
      "stateMutability": "payable",
      "type": "function"
    },
    {
      "inputs": [
        {
          "internalType": "uint256",
          "name": "betId",
          "type": "uint256"
        },
        {
          "internalType": "uint256",
          "name": "actualGrade",
          "type": "uint256"
        }
      ],
      "name": "resolveBet",
      "outputs": [],
      "stateMutability": "nonpayable",
      "type": "function"
    },
    {
      "inputs": [],
      "name": "totalLiabilities",
      "outputs": [
        {
          "internalType": "uint256",
          "name": "",
          "type": "uint256"
        }
      ],
      "stateMutability": "view",
      "type": "function"
    },
    {
      "inputs": [],
      "name": "withdrawExcess",
      "outputs": [],
      "stateMutability": "nonpayable",
      "type": "function"
    }
  ],
  "bytecode": "0x608060405234801561001057600080fd5b50600080546001600160a01b03191633179055610d6b806100326000396000f3fe6080604052600436106100c25760003560e01c8063809dab6a1161007f578063bd097e2111610059578063bd097e2114610265578063c264a0631461026d578063f73579a914610282578063f851a4401461029857600080fd5b8063809dab6a146102245780638b7afe2e146102395780639aca27921461024f57600080fd5b80630386a7e0146100c7578063061e494f146100f557806310fe7c481461015857806322af00fa1461016d57806328e1b6f3146101d75780635cb5804a14610204575b600080fd5b3480156100d357600080fd5b506100e266038d7ea4c6800081565b6040519081526020015b60405180910390f35b34801561010157600080fd5b50610115610110366004610bbe565b6102d0565b604080516001600160a01b039098168852602088019690965294860193909352606085019190915215156080840152151560a083015260c082015260e0016100ec565b61016b610166366004610bbe565b6103ad565b005b34801561017957600080fd5b50610115610188366004610bbe565b60016020819052600091825260409091208054918101546002820154600383015460048401546005909401546001600160a01b039095169492939192909160ff80821692610100909204169087565b3480156101e357600080fd5b506101f76101f2366004610bd7565b6105d1565b6040516100ec9190610c07565b34801561021057600080fd5b5061016b61021f366004610c4b565b61071e565b34801561023057600080fd5b506100e26109f1565b34801561024557600080fd5b506100e260045481565b34801561025b57600080fd5b506100e260025481565b61016b610a08565b34801561027957600080fd5b5061016b610a7e565b34801561028e57600080fd5b506100e260035481565b3480156102a457600080fd5b506000546102b8906001600160a01b031681565b6040516001600160a01b0390911681526020016100ec565b600080600080600080600060025488106103225760405162461bcd60e51b815260206004820152600e60248201526d125b9d985b1a590818995d08125160921b60448201526064015b60405180910390fd5b5050506000948552505060016020818152604094859020855160e08101875281546001600160a01b0316808252938201549281018390526002820154968101879052600382015460608201819052600483015460ff80821615156080850181905261010090920416151560a0840181905260059094015460c090930183905294989397965094509091565b6000811180156103be575060648111155b61040a5760405162461bcd60e51b815260206004820152601760248201527f496e76616c6964206772616465207468726573686f6c640000000000000000006044820152606401610319565b66038d7ea4c6800060035461041f9190610c83565b600454101561047f5760405162461bcd60e51b815260206004820152602660248201527f496e73756666696369656e7420636f6e74726163742066756e647320666f72206044820152651c185e5bdd5d60d21b6064820152608401610319565b600280546000918261049083610c9c565b909155506040805160e08101825233815234602080830191825282840187815266038d7ea4c680006060850181815260006080870181815260a088018281524260c08a019081528b8452600197889052998320985189546001600160a01b03919091166001600160a01b031990911617895596519588019590955592516002870155516003808701919091559251600486018054955115156101000261ff00199215159290921661ffff1990961695909517179093559351600590930192909255815493945092909190610565908490610c83565b92505081905550346004600082825461057e9190610c83565b9091555050604080513481526020810184905266038d7ea4c68000818301529051339183917fab2115bac1de808eb7fe2be0309085b11f1f42b1eb980de8352efefdbfc098e29181900360600190a35050565b60606000805b600254811015610641576000818152600160205260409020546001600160a01b03858116911614801561061c575060008181526001602052604090206004015460ff16155b1561062f578161062b81610c9c565b9250505b8061063981610c9c565b9150506105d7565b5060008167ffffffffffffffff81111561065d5761065d610cb5565b604051908082528060200260200182016040528015610686578160200160208202803683370190505b5090506000805b600254811015610714576000818152600160205260409020546001600160a01b0387811691161480156106d2575060008181526001602052604090206004015460ff16155b15610702578083836106e381610c9c565b9450815181106106f5576106f5610ccb565b6020026020010181815250505b8061070c81610c9c565b91505061068d565b5090949350505050565b6000546001600160a01b031633146107485760405162461bcd60e51b815260040161031990610ce1565b600254821061078a5760405162461bcd60e51b815260206004820152600e60248201526d125b9d985b1a590818995d08125160921b6044820152606401610319565b60008281526001602052604090206004015460ff16156107e35760405162461bcd60e51b815260206004820152601460248201527310995d08185b1c9958591e481c995cdbdb1d995960621b6044820152606401610319565b60648111156108245760405162461bcd60e51b815260206004820152600d60248201526c496e76616c696420677261646560981b6044820152606401610319565b600082815260016020819052604090912060048101805460ff191690921790915560028101548211156109875760048101805461ff001916610100179055805460038201546040516000926001600160a01b031691908381818185875af1925050503d80600081146108b2576040519150601f19603f3d011682016040523d82523d6000602084013e6108b7565b606091505b50509050806109015760405162461bcd60e51b815260206004820152601660248201527514185e5bdd5d081d1c985b9cd9995c8819985a5b195960521b6044820152606401610319565b8160030154600460008282546109179190610d22565b925050819055508160030154600360008282546109349190610d22565b9091555050815460038301546040519081526001600160a01b039091169085907fac496bf04b429bf7a6bb179271f3194066e9462a4f0d8afac065edd1f2be36b89060200160405180910390a3506109a3565b80600301546003600082825461099d9190610d22565b90915550505b60048101546040805184815261010090920460ff161515602083015284917f4f1f9459e1e8ff0e977d4cfec095dc3d9cd9c3773a999843521d759e04b61b51910160405180910390a2505050565b6000600354600454610a039190610d22565b905090565b6000546001600160a01b03163314610a325760405162461bcd60e51b815260040161031990610ce1565b3460046000828254610a449190610c83565b90915550506040513481527f932461ba6e96b11d9e6e7794a08b1d4a8e6dfd4f1f2d93be10af806b75431e749060200160405180910390a1565b6000546001600160a01b03163314610aa85760405162461bcd60e51b815260040161031990610ce1565b6000600354600454610aba9190610d22565b905060008111610b0c5760405162461bcd60e51b815260206004820152601b60248201527f4e6f206578636573732066756e647320746f20776974686472617700000000006044820152606401610319565b8060046000828254610b1e9190610d22565b9091555050600080546040516001600160a01b039091169083908381818185875af1925050503d8060008114610b70576040519150601f19603f3d011682016040523d82523d6000602084013e610b75565b606091505b5050905080610bba5760405162461bcd60e51b815260206004820152601160248201527015da5d1a191c985dd85b0819985a5b1959607a1b6044820152606401610319565b5050565b600060208284031215610bd057600080fd5b5035919050565b600060208284031215610be957600080fd5b81356001600160a01b0381168114610c0057600080fd5b9392505050565b6020808252825182820181905260009190848201906040850190845b81811015610c3f57835183529284019291840191600101610c23565b50909695505050505050565b60008060408385031215610c5e57600080fd5b50508035926020909101359150565b634e487b7160e01b600052601160045260246000fd5b80820180821115610c9657610c96610c6d565b92915050565b600060018201610cae57610cae610c6d565b5060010190565b634e487b7160e01b600052604160045260246000fd5b634e487b7160e01b600052603260045260246000fd5b60208082526021908201527f4f6e6c792061646d696e2063616e2063616c6c20746869732066756e6374696f6040820152603760f91b606082015260800190565b81810381811115610c9657610c96610c6d56fea264697066735822122040b7d0b51cc7adec4ae1f3f8932e434a0fab1eea2f266b93761d84a0ab0560fe64736f6c63430008130033",
  "linkReferences": {},
  "deployedLinkReferences": {}
}